:020000040800F2
:10000000002800202D170008BD160008C3160008A0
:10001000C9160008CF160008D51600080000000019
:10002000000000000000000000000000DB160008D7
:10003000E716000800000000F3160008FF1600088D
:100040007517000875170008751700087517000860
:100050007517000875170008751700087517000850
:100060007517000875170008751700087517000840
:100070007517000875170008751700087517000830
:100080007517000875170008751700087517000820
:100090007517000875170008751700087517000810
:1000A0007517000875170008751700087517000800
:1000B0000D170008751700080000000075170008EC
:1000C0007517000800000000000000007517000808
:1000D00000000000751700087517000800000000F8
:1000E0007517000875170008751700080000000054
:1000F0000000000000000000000000000000000000
:0C01000000000000000000005FF808F1A3
:10010C0010B5054C237833B9044B13B10448AFF345
:10011C0000800123237010BD280000200000000087
:10012C00942D000808B5034B1BB103490348AFF3EA
:10013C00008008BD000000002C000020942D000859
:10014C0080B500AF01220221074801F012FE002207
:10015C000421054801F00DFE00220821024801F09F
:10016C0008FE00BF80BD00BF0008014080B500AF95
:10017C0000220221074801F0FCFD01220421054860
:10018C0001F0F7FD00220821024801F0F2FD00BF4A
:10019C0080BD00BF0008014080B500AF00220221E5
:1001AC00074801F0E6FD00220421054801F0E1FDBD
:1001BC0001220821024801F0DCFD00BF80BD00BF18
:1001CC000008014080B500AF01221021074801F062
:1001DC00D0FD00222021054801F0CBFD002240215A
:1001EC00024801F0C6FD00BF80BD00BF0008014001
:1001FC0080B500AF00221021074801F0BAFD0122A2
:10020C002021054801F0B5FD00224021024801F0F3
:10021C00B0FD00BF80BD00BF0008014080B500AF3D
:10022C0000221021074801F0A4FD002220210548DE
:10023C0001F09FFD01224021024801F09AFD00BF10
:10024C0080BD00BF0008014080B500AF0022022134
:10025C000E4801F08EFD002204210C4801F089FDAE
:10026C0000220821094801F084FD002210210748D2
:10027C0001F07FFD00222021044801F07AFD0022CC
:10028C004021024801F075FD00BF80BD000801400F
:10029C0080B483B000AF00237B6016E00F4A7B680C
:1002AC00134401221A700E4A7B68134401221A70FF
:1002BC000C4A7B68134401221A700B4A7B68134466
:1002CC0001221A707B6801337B607B68022BE5DDB1
:1002DC0000BF00BF0C37BD4680BC704744000020F7
:1002EC00480000204C0000205000002080B483B057
:1002FC0000AF78607B68022B11D07B68022B12DC7C
:10030C007B68002B03D07B68012B04D00BE0094BDE
:10031C0001221A6008E0084B01221A6004E0074B26
:10032C0001221A6000E000BF00BF0C37BD4680BC44
:10033C00704700BF54000020580000205C000020D3
:10034C0080B400AF064B1B68012B04D1044B002278
:10035C001A60012300E000231846BD4680BC70479C
:10036C005400002080B400AF064B1B68012B04D155
:10037C00044B00221A60012300E000231846BD46FE
:10038C0080BC70475800002080B400AF064B1B683F
:10039C00012B04D1044B00221A60012300E000233E
:1003AC001846BD4680BC70475C00002080B582B00A
:1003BC0000AF00237B608BE04A4A7B6813441978BA
:1003CC00494A7B6813440A461A70484A7B681344AE
:1003DC001978444A7B6813440A461A707B68022BCE
:1003EC0023D07B68022B2DDC7B68002B03D07B6831
:1003FC00012B0DD026E04FF400513D4801F0A2FC3A
:10040C0003461946394A7B6813440A461A701AE0A7
:10041C004FF40061374801F095FC03461946334A06
:10042C007B6813440A461A700DE04FF48051314832
:10043C0001F088FC034619462C4A7B6813440A4693
:10044C001A7000E000BF284A7B6813441A782549CB
:10045C007B680B441B789A4237D1224A7B68134441
:10046C001A7822497B680B441B789A422DD1224A78
:10047C007B6813441A781D497B680B441B789A429D
:10048C0015D01A4A7B68134419781B4A7B681344AD
:10049C000A461A70154A7B6813441B78002B14D13A
:1004AC007868FFF723FF154BC8221A600DE0134B39
:1004BC001B68013B114A1360104B1B68002B04DCBA
:1004CC000D4A7B68134401221A707B6801337B60F0
:1004DC007B68022B7FF770AF00BF00BF0837BD46AB
:1004EC0080BD00BF48000020440000204C000020CC
:1004FC0000100140000801405000002000000020C6
:10050C0080B582B000AF78607B68002B23D10022CD
:10051C000121C24801F02DFC00220221BF4801F04C
:10052C0028FC00220421BD4801F023FC00220821F4
:10053C00BA4801F01EFC00221021B84801F019FC49
:10054C0000222021B54801F014FC01224021B348BF
:10055C0001F00FFC5DE17B68012B23D1012201210D
:10056C00AE4801F006FC00220221AC4801F001FC6F
:10057C0000220421A94801F0FCFB01220821A74814
:10058C0001F0F7FB01221021A44801F0F2FB01223B
:10059C002021A24801F0EDFB012240219F4801F0EF
:1005AC00E8FB36E17B68022B23D1002201219B481A
:1005BC0001F0DFFB00220221984801F0DAFB012256
:1005CC000421964801F0D5FB00220821934801F044
:1005DC00D0FB00221021914801F0CBFB01222021FD
:1005EC008E4801F0C6FB002240218C4801F0C1FB73
:1005FC000FE17B68032B23D100220121874801F0F6
:10060C00B8FB00220221854801F0B3FB0022042133
:10061C00824801F0AEFB00220821804801F0A9FBC2
:10062C00012210217D4801F0A4FB012220217B48EE
:10063C0001F09FFB00224021784801F09AFBE8E092
:10064C007B68042B23D101220121744801F091FB1A
:10065C0000220221714801F08CFB002204216F481A
:10066C0001F087FB012208216C4801F082FB01227A
:10067C0010216A4801F07DFB00222021674801F01F
:10068C0078FB00224021654801F073FBC1E07B68D8
:10069C00052B23D100220121604801F06AFB0122C5
:1006AC0002215E4801F065FB002204215B4801F049
:1006BC0060FB00220821594801F05BFB012210214C
:1006CC00564801F056FB00222021544801F051FB02
:1006DC0000224021514801F04CFB9AE07B68062B2C
:1006EC0023D1002201214D4801F043FB01220221BC
:1006FC004A4801F03EFB00220421484801F039FB36
:10070C0000220821454801F034FB00221021434807
:10071C0001F02FFB00222021404801F02AFB00228F
:10072C0040213E4801F025FB73E07B68072B23D169
:10073C0000220121394801F01CFB0022022137481C
:10074C0001F017FB00220421344801F012FB0122B6
:10075C000821324801F00DFB012210212F4801F035
:10076C0008FB012220212D4801F003FB012240212E
:10077C002A4801F0FEFA4CE07B68082B23D10022BA
:10078C000121264801F0F5FA00220221234801F04C
:10079C00F0FA00220421214801F0EBFA0022082192
:1007AC001E4801F0E6FA002210211C4801F0E1FA83
:1007BC0000222021194801F0DCFA002240211748C0
:1007CC0001F0D7FA25E07B68092B22D10022012108
:1007DC00124801F0CEFA00220221104801F0C9FAA9
:1007EC00002204210D4801F0C4FA002208210B4814
:1007FC0001F0BFFA01221021084801F0BAFA0022D8
:10080C002021064801F0B5FA00224021034801F0EE
:10081C00B0FA00BF0837BD4680BD00BF000C0140D8
:10082C0080B582B000AF78607B68032B6AD801A2D8
:10083C0052F823F05108000881080008B10800089C
:10084C00E108000800228021314801F092FA0122CF
:10085C004FF480712E4801F08CFA01224FF4007194
:10086C002B4801F086FA01224FF48061284801F0F0
:10087C0080FA48E001228021254801F07AFA002212
:10088C004FF48071224801F074FA01224FF4007188
:10089C001F4801F06EFA01224FF480611C4801F0F0
:1008AC0068FA30E001228021194801F062FA012235
:1008BC004FF48071164801F05CFA00224FF400717D
:1008CC00134801F056FA01224FF48061104801F0F0
:1008DC0050FA18E0012280210D4801F04AFA012259
:1008EC004FF480710A4801F044FA01224FF4007170
:1008FC00074801F03EFA00224FF48061044801F0F1
:10090C0038FA00E000BF00BF0837BD4680BD00BF0D
:10091C000008014080B500AFAC4B1B68013B082BB5
:10092C0000F2BC8401A252F823F000BF5D0900085C
:10093C00A91200086F0900089D0A0008050C0008A0
:10094C00310D0008650E0008DD0F000825110008A8
:10095C009E4B03221A60FFF71FFCFFF733FC00F0DD
:10096C00ACBC9B4B1B68012B1FD19A4B1B68002BFB
:10097C0018DB984B1B68013B964A1360964B1B681F
:10098C00013B954A1360934B1B68002B0ADA8F4B83
:10099C0004221A60914B1B688E4A1360FFF7E6FB2A
:1009AC00FFF710FC642000F0E7FD8D4B1B68012B5A
:1009BC0063D18C4B1B68002B11D1864B1B688A4A68
:1009CC0082FB03129210DB17D31A1846FFF798FD1F
:1009DC000020FFF725FF834B01221A604AE0814B70
:1009EC001B68012B16D17B4B1A687F4B83FB0213C0
:1009FC009910D317C91A0B469B000B445B00D11AF4
:100A0C000846FFF77DFD0120FFF70AFF754B022218
:100A1C001A602FE0734B1B68022B11D16E4B1B68B5
:100A2C00714A82FB03129210DB17D31A1846FFF798
:100A3C0067FD0220FFF7F4FE6A4B03221A6019E0EF
:100A4C00684B1B68032B15D1634B1A68664B83FBF1
:100A5C0002139910D317C91A0B469B000B445B0069
:100A6C00D11A0846FFF74CFD0320FFF7D9FE5D4B6A
:100A7C0000221A60142000F093FDFFF761FC03467E
:100A8C00002B00F00D84514B07221A6000F008BCBB
:100A9C004F4B1B68012B23D1544B1B68002B1CDBC9
:100AAC00524B1B68013B514A13604B4B1B68013B7B
:100ABC00494A13604D4B1B68002B0EDA434B052241
:100ACC001A604B4B1B68494A13604A4B1B68424ADD
:100ADC001360FFF7A3FBFFF733FB642000F04CFD22
:100AEC003F4B1B68012B63D13E4B1B68002B11D174
:100AFC003E4B1B683C4A82FB03129210DB17D31A45
:100B0C001846FFF7FDFC0020FFF78AFE354B01224B
:100B1C001A604AE0334B1B68012B16D1334B1A6811
:100B2C00314B83FB02139910D317C91A0B469B0048
:100B3C000B445B00D11A0846FFF7E2FC0120FFF7DB
:100B4C006FFE284B02221A602FE0264B1B68022BEB
:100B5C0011D1214B1B68244A82FB03129210DB1724
:100B6C00D31A1846FFF7CCFC0220FFF759FE1D4B99
:100B7C0003221A6019E01B4B1B68032B15D1164B73
:100B8C001A68194B83FB02139910D317C91A0B4619
:100B9C009B000B445B00D11A0846FFF7B1FC032005
:100BAC00FFF73EFE0F4B00221A60142000F0F8FCF9
:100BBC00FFF7C6FB0346002B00F07483034B0722A0
:100BCC001A60192000F0D8FC6CE300BF680000200C
:100BDC00B8000020040000200C00002010000020B1
:100BEC00C0000020600000206766666608000020D8
:100BFC0018000020140000209F4B1B68012B1FD1F4
:100C0C009E4B1B68002B18DB9C4B1B68013B9B4AC3
:100C1C0013609B4B1B68013B994A1360974B1B68F5
:100C2C00002B0ADA974B06221A60974B1B68934AE3
:100C3C001360FFF7DDFAFFF783FA642000F09CFCE9
:100C4C00924B1B68012B63D1914B1B68002B11D16C
:100C5C008B4B1B688F4A82FB03129210DB17D31A43
:100C6C001846FFF74DFC0020FFF7DAFD884B0122F8
:100C7C001A604AE0864B1B68012B16D1804B1A6810
:100C8C00844B83FB02139910D317C91A0B469B0094
:100C9C000B445B00D11A0846FFF732FC0120FFF72A
:100CAC00BFFD7B4B02221A602FE0794B1B68022B95
:100CBC0011D1724B1B68774A82FB03129210DB171F
:100CCC00D31A1846FFF71CFC0220FFF7A9FD704B46
:100CDC0003221A6019E06E4B1B68032B15D1674B6E
:100CEC001A686C4B83FB02139910D317C91A0B4665
:100CFC009B000B445B00D11A0846FFF701FC032054
:100D0C00FFF78EFD624B00221A60142000F048FCA5
:100D1C00FFF716FB0346002B00F0C682594B072247
:100D2C001A60C1E2544B1B68012B23D15A4B1B6830
:100D3C00002B1CDB584B1B68013B574A1360504B74
:100D4C001B68013B4E4A1360534B1B68002B0EDA99
:100D5C004C4B03221A60514B1B684F4A1360504B8B
:100D6C001B68474A1360FFF717FAFFF72BFA64204A
:100D7C0000F002FC454B1B68012B63D1444B1B68F4
:100D8C00002B11D13E4B1B68424A82FB031292107E
:100D9C00DB17D31A1846FFF7B3FB0020FFF740FD13
:100DAC003B4B01221A604AE0394B1B68012B16D1D0
:100DBC00334B1A68374B83FB02139910D317C91A9C
:100DCC000B469B000B445B00D11A0846FFF798FBBF
:100DDC000120FFF725FD2E4B02221A602FE02C4B31
:100DEC001B68022B11D12C4B1B682A4A82FB031265
:100DFC009210DB17D31A1846FFF782FB0220FFF77D
:100E0C000FFD234B03221A6019E0214B1B68032BA7
:100E1C0015D1214B1A681F4B83FB02139910D31762
:100E2C00C91A0B469B000B445B00D11A0846FFF70E
:100E3C0067FB0320FFF7F4FC154B00221A6014200B
:100E4C0000F0AEFBFFF77CFA0346002B00F02E827D
:100E5C000C4B07221A6029E2074B1B68012B2BD184
:100E6C00104B1B68002B1FD1FFF76AF9FFF7AAF98B
:100E7C000C4B01221A601CE0B8000020040000207A
:100E8C000C0000206800002010000020C000002092
:100E9C0060000020676666660800002018000020CD
:100EAC001400002064000020FFF7CEF9A24B0022B2
:100EBC001A60192000F060FBFFF754FA0346002B70
:100ECC000BD09E4B1B6801339C4A13609B4B1B68D9
:100EDC00632B02DD994B01221A60994B1B68012B85
:100EEC0063D1984B1B68002B11D1944B1B68964A0D
:100EFC0082FB03129210DB17D31A1846FFF700FB84
:100F0C000020FFF78DFC8F4B01221A604AE08D4BBD
:100F1C001B68012B16D1894B1A688B4B83FB021370
:100F2C009910D317C91A0B469B000B445B00D11ABE
:100F3C000846FFF7E5FA0120FFF772FC814B02220D
:100F4C001A602FE07F4B1B68022B11D17B4B1B6867
:100F5C007D4A82FB03129210DB17D31A1846FFF757
:100F6C00CFFA0020FFF75CFC764B03221A6019E0E5
:100F7C00744B1B68032B15D1704B1A68724B83FB97
:100F8C0002139910D317C91A0B469B000B445B0034
:100F9C00D11A0846FFF7B4FA0120FFF741FC694B60
:100FAC0000221A60142000F0FBFAFFF7EDF903465B
:100FBC00002B03D0614B1B68644A1360FFF7C0F928
:100FCC000346002B00F07481614B08221A606FE11C
:100FDC00604B1B68012B13D1574B1B68002B07D19F
:100FEC00FFF7C4F8FFF704F9534B01221A6004E031
:100FFC00FFF72AF9504B00221A60192000F0BCFAB6
:10100C00FFF7B0F90346002B0BD0534B1B68013391
:10101C00514A1360504B1B68632B02DD4E4B01226F
:10102C001A60474B1B68012B63D1464B1B68002B86
:10103C0011D1494B1B68444A82FB03129210DB17F7
:10104C00D31A1846FFF75CFA0020FFF7E9FB3D4B7B
:10105C0001221A604AE03B4B1B68012B16D13E4B18
:10106C001A68394B83FB02139910D317C91A0B4614
:10107C009B000B445B00D11A0846FFF741FA012094
:10108C00FFF7CEFB2F4B02221A602FE02D4B1B6873
:10109C00022B11D1304B1B682B4A82FB031292108E
:1010AC00DB17D31A1846FFF72BFA0020FFF7B8FB13
:1010BC00244B03221A6019E0224B1B68032B15D119
:1010CC00254B1A68204B83FB02139910D317C91AAE
:1010DC000B469B000B445B00D11A0846FFF710FA35
:1010EC000120FFF79DFB174B00221A60142000F023
:1010FC0057FAFFF749F90346002B03D0164B1B6830
:10110C00164A1360FFF71CF90346002B00F0D2803F
:10111C000F4B09221A60CDE00E4B1B68012B27D117
:10112C00054B1B68002B1BD1FFF736F8FFF776F841
:10113C00014B01221A6018E064000020140000200A
:10114C00C000002060000020676666660C0000206E
:10115C0068000020B80000201800002008000020C3
:10116C00FFF772F8564B00221A60192000F004FAAF
:10117C00FFF712F8FFF752F8FFF7F4F80346002BCD
:10118C000BD0504B1B6801334E4A13604D4B1B6800
:10119C00632B02DD4B4B01221A604B4B1B68012B5E
:1011AC0063D14A4B1B68002B11D1464B1B68484A34
:1011BC0082FB03129210DB17D31A1846FFF7A0F923
:1011CC000020FFF72DFB414B01221A604AE03F4BF8
:1011DC001B68012B16D13B4B1A683D4B83FB02134A
:1011EC009910D317C91A0B469B000B445B00D11AFC
:1011FC000846FFF785F90120FFF712FB334B02225B
:10120C001A602FE0314B1B68022B11D12D4B1B6840
:10121C002F4A82FB03129210DB17D31A1846FFF7E2
:10122C006FF90020FFF7FCFA284B03221A6019E033
:10123C00264B1B68032B15D1224B1A68244B83FBBE
:10124C0002139910D317C91A0B469B000B445B0071
:10125C00D11A0846FFF754F90120FFF7E1FA1B4BAE
:10126C0000221A60142000F09BF9FFF78DF803465A
:10127C00002B03D0134B1B68164A1360FFF760F862
:10128C000346002B18D0192000F076F9124B0322DC
:10129C001A60FEF781FFFEF795FF0DE000BF0CE032
:1012AC0000BF0AE000BF08E000BF06E000BF04E09A
:1012BC0000BF02E000BF00E000BF00BF80BD00BF68
:1012CC006400002010000020C000002060000020FE
:1012DC0067666666040000206800002080B500AFD9
:1012EC0000F044FA00F032F800F0B8F800F06AF8B8
:1012FC00134801F085F901228021124800F039FDD4
:10130C0001224FF480710F4800F033FD01224FF49D
:10131C0000710C4800F02DFD01224FF4806109484A
:10132C0000F027FD084B01221A60FEF7B1FF3220B6
:10133C0000F022F90A2000F033F9FFF7EBFAFCE792
:10134C006C000020000801406800002080B590B0BF
:10135C0000AF07F1180328220021184601F0E8FC21
:10136C003B1D00221A605A609A60DA601A610223EF
:10137C00BB610123BB621023FB6200237B6307F17B
:10138C001803184600F00EFD0346002B01D000F0A8
:10139C00EDF80F237B600023BB600023FB60002370
:1013AC003B6100237B613B1D0021184600F07CFF54
:1013BC000346002B01D000F0D9F800BF4037BD46E2
:1013CC0080BD000080B586B000AF07F10803002295
:1013DC001A605A609A60DA603B4600221A605A60C2
:1013EC001D4B4FF080421A601B4B41F63F725A6006
:1013FC00194B00229A60184B0922DA60164B002216
:10140C001A61154B00229A61134801F0A9F80346A2
:10141C00002B01D000F0AAF84FF48053BB6007F109
:10142C00080319460C4801F03FFA0346002B01D083
:10143C0000F09CF800233B6000237B603B46194680
:10144C00054801F00BFC0346002B01D000F08EF890
:10145C0000BF1837BD4680BD6C00002080B588B039
:10146C0000AF07F1100300221A605A609A60DA602C
:10147C00344B9B69334A43F010039361314B9B69A6
:10148C0003F01003FB60FB682E4B9B692D4A43F065
:10149C00040393612B4B9B6903F00403BB60BB6893
:1014AC00284B9B69274A43F008039361254B9B69A2
:1014BC0003F008037B607B68002240F2FE71224837
:1014CC0000F057FC0022FF21204800F052FC4FF4A2
:1014DC0000533B6100237B610123BB6107F11003C7
:1014EC0019461B4800F0B2FA40F2FE733B6101232F
:1014FC007B610023BB610223FB6107F110031946DA
:10150C00114800F0A3FAFF233B6101237B61002308
:10151C00BB610223FB6107F1100319460B4800F075
:10152C0095FA4FF4C0533B6100237B610123BB61EF
:10153C0007F110031946044800F088FA00BF203761
:10154C00BD4680BD0010024000080140000C014067
:10155C000010014080B582B000AF7860FEF726FF26
:10156C0000F032F800BF0837BD4680BD80B400AF34
:10157C0072B600BFFEE7000080B483B000AF7860A5
:10158C00054A7B681360054B00221A6000BF0C37BC
:10159C00BD4680BC704700BFB4000020B8000020DE
:1015AC0080B483B000AF7860054A7B681360054B4C
:1015BC0000221A6000BF0C37BD4680BC704700BFCC
:1015CC00BC000020C000002080B400AF114B1B6891
:1015DC00002B0BDD0F4B1B68013B0E4A13600D4BB0
:1015EC001B68002B02DC0C4B01221A600B4B1B6896
:1015FC00002B0BDD094B1B68013B084A1360074BA2
:10160C001B68002B02DC064B01221A6000BFBD4692
:10161C0080BC7047B4000020B8000020BC00002043
:10162C00C000002080B483B000AF0E4B9B690D4A04
:10163C0043F0010393610B4B9B6903F001037B6047
:10164C007B68084BDB69074A43F08053D361054B39
:10165C00DB6903F080533B603B6800BF0C37BD4631
:10166C0080BC70470010024080B584B000AF786039
:10167C007B681B68B3F1804F13D10C4BDB690B4AB1
:10168C0043F00103D361094BDB6903F00103FB60F9
:10169C00FB68002200211C2000F0A1F91C2000F0A6
:1016AC00BAF900BF1037BD4680BD00BF0010024024
:1016BC0080B400AFFEE780B400AFFEE780B400AFAB
:1016CC00FEE780B400AFFEE780B400AFFEE780B465
:1016DC0000AF00BFBD4680BC704780B400AF00BFF8
:1016EC00BD4680BC704780B400AF00BFBD4680BC17
:1016FC00704780B500AF00F07FF800BF80BD0000E0
:10170C0080B500AF024800F0C7FF00BF80BD00BF2E
:10171C006C00002080B400AF00BFBD4680BC704799
:10172C00FFF7F8FF0B480C490C4A002302E0D45891
:10173C00C4500433C4188C42F9D3094A094C002311
:10174C0001E013600432A242FBD301F0F9FAFFF777
:10175C00C5FD70470000002028000020D82D00088F
:10176C0028000020C8000020FEE7000080B500AF74
:10177C00084B1B68074A43F010031360032000F06A
:10178C0023F90F2000F008F8FFF74CFF0023184650
:10179C0080BD00BF0020024080B582B000AF7860F1
:1017AC00124B1A68124B1B7819464FF47A73B3FB21
:1017BC00F1F3B2FBF3F3184600F03BF90346002BB0
:1017CC0001D001230EE07B680F2B0AD80022796828
:1017DC004FF0FF3000F003F9064A7B6813600023DA
:1017EC0000E0012318460837BD4680BD1C000020D0
:1017FC00240000202000002080B400AF054B1B7893
:10180C001A46054B1B681344034A136000BFBD46C0
:10181C0080BC704724000020C400002080B400AFBE
:10182C00024B1B681846BD4680BC7047C4000020A4
:10183C0080B485B000AF78607B6803F00703FB6071
:10184C000C4BDB68BB60BA684FF6FF031340BB6000
:10185C00FB681A02BB68134343F0BF6343F40033C5
:10186C00BB60044ABB68D36000BF1437BD4680BC64
:10187C00704700BF00ED00E080B400AF044BDB68A4
:10188C001B0A03F007031846BD4680BC704700BF17
:10189C0000ED00E080B483B000AF0346FB7197F914
:1018AC000730002B0BDBFB7903F01F02064997F97D
:1018BC0007305B09012000FA02F241F8232000BF37
:1018CC000C37BD4680BC704700E100E080B483B0AB
:1018DC0000AF03463960FB7197F90730002B0ADB28
:1018EC003B68DAB20C4997F907301201D2B20B44BB
:1018FC0083F800230AE03B68DAB20849FB7903F06D
:10190C000F03043B1201D2B20B441A7600BF0C3702
:10191C00BD4680BC704700BF00E100E000ED00E078
:10192C0080B489B000AFF860B9607A60FB6803F0EE
:10193C000703FB61FB69C3F10703042B28BF0423D6
:10194C00BB61FB690433062B02D9FB69033B00E046
:10195C0000237B614FF0FF32BB6902FA03F3DA43D9
:10196C00BB681A407B699A404FF0FF317B6901FAE2
:10197C0003F3D9437B680B40134318462437BD4609
:10198C0080BC704780B582B000AF78607B68013B4B
:10199C00B3F1807F01D301230FE00A4A7B68013B3E
:1019AC0053600F214FF0FF30FFF790FF054B0022E3
:1019BC009A60044B07221A60002318460837BD466C
:1019CC0080BD00BF10E000E080B582B000AF786051
:1019DC007868FFF72DFF00BF0837BD4680BD80B586
:1019EC0086B000AF0346B9607A60FB7300237B615D
:1019FC00FFF742FF78617A68B9687869FFF790FF62
:101A0C00024697F90F3011461846FFF75FFF00BFEB
:101A1C001837BD4680BD80B582B000AF0346FB7160
:101A2C0097F907301846FFF735FF00BF0837BD465A
:101A3C0080BD80B582B000AF78607868FFF7A2FFF8
:101A4C00034618460837BD4680BD000080B48BB0F5
:101A5C0000AF7860396000237B6200233B6261E158
:101A6C0001227B6A02FA03F3FB613B681B68FA698B
:101A7C001340BB61BA69FB699A4240F050813B68E4
:101A8C005B68974A93425ED0954A934275D8954AC3
:101A9C00934258D0934A93426FD8934A934252D070
:101AAC00914A934269D8914A93424CD08F4A9342BF
:101ABC0063D88F4A934246D08D4A93425DD8122BFD
:101ACC002AD8122B59D801A252F823F0531B000824
:101ADC002D1B00083F1B0008811B0008871B0008FA
:101AEC00871B0008871B0008871B0008871B000842
:101AFC00871B0008871B0008871B0008871B000832
:101B0C00871B0008871B0008871B0008871B000821
:101B1C00351B0008491B0008764A934213D02CE071
:101B2C003B68DB683B6229E03B68DB6804333B6263
:101B3C0024E03B68DB6808333B621FE03B68DB68F2
:101B4C000C333B621AE03B689B68002B02D10423E8
:101B5C003B6213E03B689B68012B05D108233B6279
:101B6C007B68FA691A6109E008233B627B68FA69B1
:101B7C005A6103E000233B6200E000BFBB69FF2B0E
:101B8C0001D87B6801E07B6804337B61BB69FF2B68
:101B9C0002D87B6A9B0002E07B6A083B9B003B619E
:101BAC007B691A680F213B6901FA03F3DB431A4086
:101BBC00396A3B6901FA03F31A437B691A603B6883
:101BCC005B6803F08053002B00F0A9804A4B9B69A3
:101BDC00494A43F001039361474B9B6903F00103AE
:101BEC00BB60BB68454A7B6A9B08023352F82330C2
:101BFC00FB607B6A03F003039B000F2202FA03F3E2
:101C0C00DB43FA681340FB607B683D4A93420DD07E
:101C1C007B683C4A934207D07B683B4A934201D194
:101C2C00022304E0032302E0012300E000237A6A8C
:101C3C0002F0030292009340FA681343FB602F49B1
:101C4C007B6A9B080233FA6841F823203B685B6887
:101C5C0003F48013002B06D02C4B9A682B49BB69DC
:101C6C0013438B6006E0294B9A68BB69DB43274919
:101C7C0013408B603B685B6803F40013002B06D0A9
:101C8C00224BDA682149BB691343CB6006E01F4B3A
:101C9C00DA68BB69DB431D491340CB603B685B686A
:101CAC0003F40033002B06D0184B5A681749BB6954
:101CBC0013434B6006E0154B5A68BB69DB43134971
:101CCC0013404B603B685B6803F48033002B1FD0E0
:101CDC000E4B1A680D49BB6913430B601FE000BF24
:101CEC000000321000003110000022100000211002
:101CFC000000121000001110001002400000014002
:101D0C0000080140000C014000100140000401409B
:101D1C000B4B1A68BB69DB43094913400B607B6AA8
:101D2C0001337B623B681A687B6A22FA03F3002B4F
:101D3C007FF496AE00BF00BF2C37BD4680BC704709
:101D4C000004014080B485B000AF78600B467B8006
:101D5C007B689A687B881340002B02D00123FB73AD
:101D6C0001E00023FB73FB7B18461437BD4680BC97
:101D7C00704780B483B000AF78600B467B8013460D
:101D8C007B707B78002B03D07A887B681A6103E028
:101D9C007B881A047B681A6100BF0C37BD4680BC77
:101DAC007047000080B586B000AF78607B68002B70
:101DBC0001D1012372E27B681B6803F00103002B45
:101DCC0000F08780924B5B6803F00C03042B0CD063
:101DDC008F4B5B6803F00C03082B12D18C4B5B68A8
:101DEC0003F48033B3F5803F0BD1894B1B6803F4AC
:101DFC000033002B6CD07B685B68002B68D101230F
:101E0C004CE27B685B68B3F5803F06D1804B1B6866
:101E1C007F4A43F4803313602EE07B685B68002BB1
:101E2C000CD17B4B1B687A4A23F480331360784BBC
:101E3C001B68774A23F4802313601DE07B685B6882
:101E4C00B3F5A02F0CD1724B1B68714A43F480235D
:101E5C0013606F4B1B686E4A43F4803313600BE0C6
:101E6C006B4B1B686A4A23F480331360684B1B6806
:101E7C00674A23F4802313607B685B68002B13D0C4
:101E8C00FFF7CCFC386108E0FFF7C8FC02463B6961
:101E9C00D31A642B01D9032300E25D4B1B6803F4B6
:101EAC000033002BF0D014E0FFF7B8FC386108E0E9
:101EBC00FFF7B4FC02463B69D31A642B01D9032308
:101ECC00ECE1534B1B6803F40033002BF0D100E022
:101EDC0000BF7B681B6803F00203002B63D04C4BE4
:101EEC005B6803F00C03002B0BD0494B5B6803F0D1
:101EFC000C03082B1CD1464B5B6803F48033002B7E
:101F0C0016D1434B1B6803F00203002B05D07B68F2
:101F1C001B69012B01D00123C0E13D4B1B6823F051
:101F2C00F8027B685B69DB00394913430B603AE0CC
:101F3C007B681B69002B20D0364B01221A60FFF7FF
:101F4C006DFC386108E0FFF769FC02463B69D31A67
:101F5C00022B01D90323A1E12D4B1B6803F00203D3
:101F6C00002BF0D02A4B1B6823F0F8027B685B69CE
:101F7C00DB00274913430B6015E0264B00221A6047
:101F8C00FFF74CFC386108E0FFF748FC02463B6960
:101F9C00D31A022B01D9032380E11D4B1B6803F0DC
:101FAC000203002BF0D17B681B6803F00803002BA5
:101FBC003AD07B689B69002B19D0174B01221A6011
:101FCC00FFF72CFC386108E0FFF728FC02463B6960
:101FDC00D31A022B01D9032360E10D4B5B6A03F08A
:101FEC000203002BF0D0012000F09CFA1CE00A4BFD
:101FFC0000221A60FFF712FC38610FE0FFF70EFCAD
:10200C0002463B69D31A022B08D9032346E100BFD1
:10201C00001002400000424280044242924B5B6A34
:10202C0003F00203002BE9D17B681B6803F0040367
:10203C00002B00F0A6800023FB758B4BDB6903F0B3
:10204C008053002B0DD1884BDB69874A43F08053BA
:10205C00D361854BDB6903F08053BB60BB68012304
:10206C00FB75824B1B6803F48073002B18D17F4BDC
:10207C001B687E4A43F480731360FFF7CFFB386113
:10208C0008E0FFF7CBFB02463B69D31A642B01D95E
:10209C00032303E1754B1B6803F48073002BF0D012
:1020AC007B68DB68012B06D16F4B1B6A6E4A43F0D1
:1020BC00010313622DE07B68DB68002B0CD16A4BAB
:1020CC001B6A694A23F001031362674B1B6A664A59
:1020DC0023F0040313621CE07B68DB68052B0CD136
:1020EC00614B1B6A604A43F0040313625E4B1B6A2C
:1020FC005D4A43F0010313620BE05B4B1B6A5A4AC7
:10210C0023F001031362584B1B6A574A23F0040354
:10211C0013627B68DB68002B15D0FFF77FFB3861FF
:10212C000AE0FFF77BFB02463B69D31A41F2883287
:10213C00934201D90323B1E04B4B1B6A03F002031A
:10214C00002BEED014E0FFF769FB38610AE0FFF7D3
:10215C0065FB02463B69D31A41F28832934201D99E
:10216C0003239BE0404B1B6A03F00203002BEED1D0
:10217C00FB7D012B05D13C4BDB693B4A23F08053A3
:10218C00D3617B68DB69002B00F08780364B5B6882
:10219C0003F00C03082B61D07B68DB69022B46D162
:1021AC00334B00221A60FFF739FB386108E0FFF768
:1021BC0035FB02463B69D31A022B01D903236DE090
:1021CC00294B1B6803F00073002BF0D17B681B6A52
:1021DC00B3F5803F08D1244B5B6823F400327B6855
:1021EC009B68214913434B601F4B5B6823F47412AB
:1021FC007B68196A7B685B6A0B431B4913434B6012
:10220C001B4B01221A60FFF709FB386108E0FFF74E
:10221C0005FB02463B69D31A022B01D903233DE08F
:10222C00114B1B6803F00073002BF0D035E0104B02
:10223C0000221A60FFF7F2FA386108E0FFF7EEFAB5
:10224C0002463B69D31A022B01D9032326E0064B25
:10225C001B6803F00073002BF0D11EE07B68DB6978
:10226C00012B07D1012319E000100240007000403F
:10227C00600042420B4B5B68FB60FB6803F48032EE
:10228C007B681B6A9A4206D1FB6803F470127B6868
:10229C005B6A9A4201D0012300E0002318461837EC
:1022AC00BD4680BD0010024080B584B000AF7860A0
:1022BC0039607B68002B01D10123D0E06A4B1B688D
:1022CC0003F007033A689A4210D9674B1B6823F056
:1022DC00070265493B6813430B60634B1B6803F0B3
:1022EC0007033A689A4201D00123B8E07B681B6867
:1022FC0003F00203002B20D07B681B6803F004035F
:10230C00002B05D0594B5B68584A43F4E06353608B
:10231C007B681B6803F00803002B05D0534B5B68EC
:10232C00524A43F460535360504B5B6823F0F00205
:10233C007B689B684D4913434B607B681B6803F0BB
:10234C000103002B40D07B685B68012B07D1474B06
:10235C001B6803F40033002B15D101237FE07B684D
:10236C005B68022B07D1414B1B6803F00073002BF9
:10237C0009D1012373E03D4B1B6803F00203002BD2
:10238C0001D101236BE0394B5B6823F003027B68BE
:10239C005B68364913434B60FFF740FAF8600AE07C
:1023AC00FFF73CFA0246FB68D31A41F2883293429B
:1023BC0001D9032353E02D4B5B6803F00C027B68BF
:1023CC005B689B009A42EBD1274B1B6803F0070319
:1023DC003A689A4210D2244B1B6823F00702224918
:1023EC003B6813430B60204B1B6803F007033A68F0
:1023FC009A4201D0012332E07B681B6803F004038E
:10240C00002B08D0194B5B6823F4E0627B68DB6817
:10241C00164913434B607B681B6803F00803002BC1
:10242C0009D0124B5B6823F460527B681B69DB009C
:10243C000E4913434B6000F021F802460B4B5B68CE
:10244C001B0903F00F030A49CB5C22FA03F3094A78
:10245C001360094B1B681846FFF79EF900231846BA
:10246C001037BD4680BD00BF002002400010024066
:10247C00AC2D00081C0000202000002080B487B088
:10248C0000AF0023FB600023BB6000237B610023B3
:10249C007B6000233B611E4B5B68FB60FB6803F0B9
:1024AC000C03042B02D0082B03D027E0194B3B6103
:1024BC0027E0FB689B0C03F00F03174AD35C7B608F
:1024CC00FB6803F48033002B10D0114B5B685B0C62
:1024DC0003F00103114AD35CBB607B680D4A03FB1C
:1024EC0002F2BB68B2FBF3F37B6104E07B680C4A3D
:1024FC0002FB03F37B617B693B6102E0054B3B61B3
:10250C0000BF3B6918461C37BD4680BC704700BFF6
:10251C000010024000127A00BC2D0008CC2D0008DF
:10252C0000093D0080B485B000AF78600A4B1B6891
:10253C000A4AA2FB03235B0A7A6802FB03F3FB60E3
:10254C0000BFFB685A1EFA60002BF9D100BF00BF18
:10255C001437BD4680BC70471C000020D34D621060
:10256C0080B582B000AF78607B68002B01D101236D
:10257C0041E07B6893F83D30DBB2002B06D17B68E1
:10258C00002283F83C207868FFF76EF87B68022203
:10259C0083F83D207B681A687B6804331946104623
:1025AC0000F06EFA7B68012283F846207B680122DA
:1025BC0083F83E207B68012283F83F207B68012250
:1025CC0083F840207B68012283F841207B6801223C
:1025DC0083F842207B68012283F843207B68012228
:1025EC0083F844207B68012283F845207B68012214
:1025FC0083F83D20002318460837BD4680BD0000F7
:10260C0080B485B000AF78607B6893F83D30DBB266
:10261C00012B01D0012335E07B68022283F83D2099
:10262C007B681B68DA687B681B6842F00102DA6021
:10263C007B681B68164A934209D07B681B68B3F110
:10264C00804F04D07B681B68124A934211D17B687F
:10265C001B689B6803F00703FB60FB68062B10D01C
:10266C007B681B681A687B681B6842F001021A6061
:10267C0007E07B681B681A687B681B6842F00102E4
:10268C001A60002318461437BD4680BC704700BF43
:10269C00002C01400004004080B582B000AF78608F
:1026AC007B681B681B6903F00203022B22D17B6839
:1026BC001B68DB6803F00203022B1BD17B681B68D1
:1026CC006FF002021A617B6801221A777B681B6823
:1026DC009B6903F00303002B03D0786800F0B4F976
:1026EC0005E0786800F0A7F9786800F0B6F97B6827
:1026FC0000221A777B681B681B6903F00403042B08
:10270C0022D17B681B68DB6803F00403042B1BD10C
:10271C007B681B686FF004021A617B6802221A77CF
:10272C007B681B689B6903F44073002B03D07868AB
:10273C0000F08AF905E0786800F07DF9786800F01F
:10274C008CF97B6800221A777B681B681B6903F085
:10275C000803082B22D17B681B68DB6803F0080395
:10276C00082B1BD17B681B686FF008021A617B6811
:10277C0004221A777B681B68DB6903F00303002BC8
:10278C0003D0786800F060F905E0786800F053F940
:10279C00786800F062F97B6800221A777B681B6806
:1027AC001B6903F01003102B22D17B681B68DB68BC
:1027BC0003F01003102B1BD17B681B686FF0100209
:1027CC001A617B6808221A777B681B68DB6903F443
:1027DC004073002B03D0786800F036F905E0786878
:1027EC0000F029F9786800F038F97B6800221A7734
:1027FC007B681B681B6903F00103012B0ED17B68FE
:10280C001B68DB6803F00103012B07D17B681B6895
:10281C006FF001021A617868FEF79CFE7B681B68FA
:10282C001B6903F08003802B0ED17B681B68DB686F
:10283C0003F08003802B07D17B681B686FF080024C
:10284C001A61786800F06BFA7B681B681B6903F0EF
:10285C004003402B0ED17B681B68DB6803F0400300
:10286C00402B07D17B681B686FF040021A617868B7
:10287C0000F0FCF87B681B681B6903F02003202B1D
:10288C000ED17B681B68DB6803F02003202B07D17B
:10289C007B681B686FF020021A61786800F036FACA
:1028AC0000BF0837BD4680BD80B584B000AF7860EE
:1028BC0039600023FB737B6893F83C30012B01D10A
:1028CC000223B4E07B68012283F83C207B6802225F
:1028DC0083F83D207B681B689B68BB60BB6823F05A
:1028EC007703BB60BB6823F47F43BB607B681B68CA
:1028FC00BA689A603B681B68B3F5005F3ED0B3F5CD
:10290C00005F00F28780B3F5805F00F08680B3F53E
:10291C00805F7FD8702B1AD0702B7BD8602B50D057
:10292C00602B77D8502B3CD0502B73D8402B58D0E1
:10293C00402B6FD8302B64D0302B6BD8202B60D031
:10294C00202B67D8002B5CD0102B5AD062E07B6810
:10295C0018683B6899683B685A683B68DB6800F00C
:10296C005EF97B681B689B68BB60BB6843F07703B0
:10297C00BB607B681B68BA689A604FE07B6818681C
:10298C003B6899683B685A683B68DB6800F047F91C
:10299C007B681B689A687B681B6842F480429A606B
:1029AC003CE07B6818683B6859683B68DB681A46F2
:1029BC0000F0BEF87B681B685021184600F015F932
:1029CC002CE07B6818683B6859683B68DB681A46E2
:1029DC0000F0DCF87B681B686021184600F005F9F4
:1029EC001CE07B6818683B6859683B68DB681A46D2
:1029FC0000F09EF87B681B684021184600F0F5F843
:102A0C000CE07B681A683B681B681946104600F09E
:102A1C00ECF803E00123FB7300E000BF7B680122AC
:102A2C0083F83D207B68002283F83C20FB7B184612
:102A3C001037BD4680BD80B483B000AF786000BF56
:102A4C000C37BD4680BC704780B483B000AF786053
:102A5C0000BF0C37BD4680BC704780B483B000AF5C
:102A6C00786000BF0C37BD4680BC704780B483B023
:102A7C0000AF786000BF0C37BD4680BC70470000CB
:102A8C0080B485B000AF786039607B681B68FB60F0
:102A9C007B68254A934207D07B68B3F1804F03D003
:102AAC007B68224A934208D1FB6823F07003FB60D9
:102ABC003B685B68FA681343FB607B681A4A934275
:102ACC0007D07B68B3F1804F03D07B68174A9342E1
:102ADC0008D1FB6823F44073FB603B68DB68FA6841
:102AEC001343FB60FB6823F080023B685B69134374
:102AFC00FB607B68FA681A603B689A687B68DA62EC
:102B0C003B681A687B689A627B68074A934203D1D8
:102B1C003B681A697B681A637B6801225A6100BFA3
:102B2C001437BD4680BC7047002C014000040040A7
:102B3C0080B487B000AFF860B9607A60FB681B6A3C
:102B4C007B61FB681B6A23F00102FB681A62FB685D
:102B5C009B693B613B6923F0F0033B617B681B0184
:102B6C003A6913433B617B6923F00A037B617A6901
:102B7C00BB6813437B61FB683A699A61FB687A69AD
:102B8C001A6200BF1C37BD4680BC704780B487B04A
:102B9C0000AFF860B9607A60FB681B6A7B61FB6808
:102BAC001B6A23F01002FB681A62FB689B693B618D
:102BBC003B6923F470433B617B681B033A69134305
:102BCC003B617B6923F0A0037B61BB681B017A69C5
:102BDC0013437B61FB683A699A61FB687A691A62F4
:102BEC0000BF1C37BD4680BC704780B485B000AFB9
:102BFC00786039607B689B68FB60FB6823F070032E
:102C0C00FB603A68FB68134343F00703FB607B6887
:102C1C00FA689A6000BF1437BD4680BC704780B418
:102C2C0087B000AFF860B9607A603B60FB689B6866
:102C3C007B617B6923F47F437B613B681A027B6871
:102C4C001A43BB6813437A6913437B61FB687A6947
:102C5C009A6000BF1C37BD4680BC704780B485B0FD
:102C6C0000AF786039607B6893F83C30012B01D160
:102C7C00022341E07B68012283F83C207B6802221E
:102C8C0083F83D207B681B685B68FB607B681B6876
:102C9C009B68BB60FB6823F07003FB603B681B68A0
:102CAC00FA681343FB607B681B68FA685A607B68A0
:102CBC001B68144A934209D07B681B68B3F1804FA0
:102CCC0004D07B681B68104A93420CD1BB6823F07C
:102CDC008003BB603B685B68BA681343BB607B686E
:102CEC001B68BA689A607B68012283F83D207B6878
:102CFC00002283F83C20002318461437BD4680BCC4
:102D0C00704700BF002C01400004004080B483B029
:102D1C0000AF786000BF0C37BD4680BC704780B4F4
:102D2C0083B000AF786000BF0C37BD4680BC7047E5
:102D3C0003460244934200D1704703F8011BF9E7A4
:102D4C0070B500260C4D0D4C641BA410A64209D185
:102D5C0000F01AF800260A4D0A4C641BA410A64277
:102D6C0005D170BD55F8043B98470136EEE755F890
:102D7C00043B98470136F2E7D02D0008D02D00080F
:102D8C00D02D0008D42D0008F8B500BFF8BC08BC45
:102D9C009E467047F8B500BFF8BC08BC9E4670470D
:102DAC0000000000000000000102030406070809EF
:102DBC0002030405060708090A0B0C0D0E0F101070
:042DCC000102000000
:042DD00031010008C5
:042DD4000D010008E5
:102DD800C800000003000000020000000500000019
:102DE8000300000005000000020000000024F400B9
:082DF8001000000001000000C2
:040000050800172DAB
:00000001FF
